{
  "contractName": "SimpleStorage",
  "abi": [
    {
      "anonymous": false,
      "inputs": [
        {
          "indexed": false,
          "internalType": "uint256",
          "name": "pid",
          "type": "uint256"
        },
        {
          "indexed": false,
          "internalType": "string",
          "name": "pname",
          "type": "string"
        },
        {
          "indexed": false,
          "internalType": "string",
          "name": "pcatg",
          "type": "string"
        },
        {
          "indexed": false,
          "internalType": "uint256",
          "name": "qty",
          "type": "uint256"
        }
      ],
      "name": "itemadded",
      "type": "event"
    },
    {
      "constant": true,
      "inputs": [
        {
          "internalType": "uint256",
          "name": "",
          "type": "uint256"
        }
      ],
      "name": "allitems",
      "outputs": [
        {
          "internalType": "uint256",
          "name": "",
          "type": "uint256"
        }
      ],
      "payable": false,
      "stateMutability": "view",
      "type": "function"
    },
    {
      "constant": true,
      "inputs": [
        {
          "internalType": "uint256",
          "name": "",
          "type": "uint256"
        }
      ],
      "name": "idmap",
      "outputs": [
        {
          "internalType": "uint256",
          "name": "pid",
          "type": "uint256"
        },
        {
          "internalType": "string",
          "name": "pname",
          "type": "string"
        },
        {
          "internalType": "string",
          "name": "pcatg",
          "type": "string"
        },
        {
          "internalType": "uint256",
          "name": "qty",
          "type": "uint256"
        }
      ],
      "payable": false,
      "stateMutability": "view",
      "type": "function"
    },
    {
      "constant": true,
      "inputs": [],
      "name": "readauth",
      "outputs": [
        {
          "components": [
            {
              "internalType": "string",
              "name": "id",
              "type": "string"
            },
            {
              "internalType": "string",
              "name": "pass",
              "type": "string"
            }
          ],
          "internalType": "struct SimpleStorage.Auth",
          "name": "a",
          "type": "tuple"
        }
      ],
      "payable": false,
      "stateMutability": "pure",
      "type": "function"
    },
    {
      "constant": false,
      "inputs": [
        {
          "internalType": "uint256",
          "name": "_pid",
          "type": "uint256"
        },
        {
          "internalType": "string",
          "name": "_pname",
          "type": "string"
        },
        {
          "internalType": "string",
          "name": "_pcatg",
          "type": "string"
        },
        {
          "internalType": "uint256",
          "name": "_qty",
          "type": "uint256"
        }
      ],
      "name": "set",
      "outputs": [],
      "payable": false,
      "stateMutability": "nonpayable",
      "type": "function"
    },
    {
      "constant": true,
      "inputs": [
        {
          "internalType": "uint256",
          "name": "proid",
          "type": "uint256"
        }
      ],
      "name": "get",
      "outputs": [
        {
          "internalType": "string",
          "name": "s",
          "type": "string"
        }
      ],
      "payable": false,
      "stateMutability": "view",
      "type": "function"
    }
  ],
  "bytecode": "0x608060405234801561001057600080fd5b50610c8b806100206000396000f3fe608060405234801561001057600080fd5b50600436106100575760003560e01c8063319f8c9a1461005c578063407b5cc61461007a5780639507d39a14610096578063ceb62751146100c6578063d4c3d7e1146100f9575b600080fd5b610064610129565b6040516100719190610a60565b60405180910390f35b610094600480360361008f91908101906108ad565b6101c1565b005b6100b060048036036100ab9190810190610884565b610356565b6040516100bd9190610a3e565b60405180910390f35b6100e060048036036100db9190810190610884565b61052c565b6040516100f09493929190610af0565b60405180910390f35b610113600480360361010e9190810190610884565b61068c565b6040516101209190610a82565b60405180910390f35b6101316106ad565b6101396106ad565b60405180604001604052806040518060400160405280600c81526020017f636f6c6f6e656c736d617274000000000000000000000000000000000000000081525081526020016040518060400160405280600a81526020017f6b65726e656c403132330000000000000000000000000000000000000000000081525081525090508091505090565b600084116101ce57600080fd5b60008351116101dc57600080fd5b60008251116101ea57600080fd5b600081116101f757600080fd5b60405180608001604052808581526020018481526020018381526020018281525060036000820151816000015560208201518160010190805190602001906102409291906106c7565b50604082015181600201908051906020019061025d9291906106c7565b506060820151816003015590505060036001600086815260200190815260200160002060008201548160000155600182018160010190805460018160011615610100020316600290046102b1929190610747565b50600282018160020190805460018160011615610100020316600290046102d9929190610747565b506003820154816003015590505060028490806001815401808255809150509060018203906000526020600020016000909192909190915055507fb65fd4e832a4ef9c5efe560d2c3f2cbb8fae07fcabf8988f0f181d0fbc9ce577848484846040516103489493929190610a9d565b60405180910390a150505050565b606060008090505b600280549050811015610525576002818154811061037857fe5b9060005260206000200154831415610518576103926107ce565b6001600085815260200190815260200160002060405180608001604052908160008201548152602001600182018054600181600116156101000203166002900480601f0160208091040260200160405190810160405280929190818152602001828054600181600116156101000203166002900480156104535780601f1061042857610100808354040283529160200191610453565b820191906000526020600020905b81548152906001019060200180831161043657829003601f168201915b50505050508152602001600282018054600181600116156101000203166002900480601f0160208091040260200160405190810160405280929190818152602001828054600181600116156101000203166002900480156104f55780601f106104ca576101008083540402835291602001916104f5565b820191906000526020600020905b8154815290600101906020018083116104d857829003601f168201915b505050505081526020016003820154815250509050806020015192505050610527565b808060010191505061035e565b505b919050565b6001602052806000526040600020600091509050806000015490806001018054600181600116156101000203166002900480601f0160208091040260200160405190810160405280929190818152602001828054600181600116156101000203166002900480156105de5780601f106105b3576101008083540402835291602001916105de565b820191906000526020600020905b8154815290600101906020018083116105c157829003601f168201915b505050505090806002018054600181600116156101000203166002900480601f01602080910402602001604051908101604052809291908181526020018280546001816001161561010002031660029004801561067c5780601f106106515761010080835404028352916020019161067c565b820191906000526020600020905b81548152906001019060200180831161065f57829003601f168201915b5050505050908060030154905084565b6002818154811061069957fe5b906000526020600020016000915090505481565b604051806040016040528060608152602001606081525090565b828054600181600116156101000203166002900490600052602060002090601f016020900481019282601f1061070857805160ff1916838001178555610736565b82800160010185558215610736579182015b8281111561073557825182559160200191906001019061071a565b5b50905061074391906107f6565b5090565b828054600181600116156101000203166002900490600052602060002090601f016020900481019282601f1061078057805485556107bd565b828001600101855582156107bd57600052602060002091601f016020900482015b828111156107bc5782548255916001019190600101906107a1565b5b5090506107ca91906107f6565b5090565b6040518060800160405280600081526020016060815260200160608152602001600081525090565b61081891905b808211156108145760008160009055506001016107fc565b5090565b90565b600082601f83011261082c57600080fd5b813561083f61083a82610b70565b610b43565b9150808252602083016020830185838301111561085b57600080fd5b610866838284610bde565b50505092915050565b60008135905061087e81610c31565b92915050565b60006020828403121561089657600080fd5b60006108a48482850161086f565b91505092915050565b600080600080608085870312156108c357600080fd5b60006108d18782880161086f565b945050602085013567ffffffffffffffff8111156108ee57600080fd5b6108fa8782880161081b565b935050604085013567ffffffffffffffff81111561091757600080fd5b6109238782880161081b565b92505060606109348782880161086f565b91505092959194509250565b600061094b82610ba7565b6109558185610bc3565b9350610965818560208601610bed565b61096e81610c20565b840191505092915050565b600061098482610b9c565b61098e8185610bb2565b935061099e818560208601610bed565b6109a781610c20565b840191505092915050565b60006109bd82610b9c565b6109c78185610bc3565b93506109d7818560208601610bed565b6109e081610c20565b840191505092915050565b60006040830160008301518482036000860152610a088282610979565b91505060208301518482036020860152610a228282610979565b9150508091505092915050565b610a3881610bd4565b82525050565b60006020820190508181036000830152610a588184610940565b905092915050565b60006020820190508181036000830152610a7a81846109eb565b905092915050565b6000602082019050610a976000830184610a2f565b92915050565b6000608082019050610ab26000830187610a2f565b8181036020830152610ac48186610940565b90508181036040830152610ad88185610940565b9050610ae76060830184610a2f565b95945050505050565b6000608082019050610b056000830187610a2f565b8181036020830152610b1781866109b2565b90508181036040830152610b2b81856109b2565b9050610b3a6060830184610a2f565b95945050505050565b6000604051905081810181811067ffffffffffffffff82111715610b6657600080fd5b8060405250919050565b600067ffffffffffffffff821115610b8757600080fd5b601f19601f8301169050602081019050919050565b600081519050919050565b600081519050919050565b600082825260208201905092915050565b600082825260208201905092915050565b6000819050919050565b82818337600083830152505050565b60005b83811015610c0b578082015181840152602081019050610bf0565b83811115610c1a576000848401525b50505050565b6000601f19601f8301169050919050565b610c3a81610bd4565b8114610c4557600080fd5b5056fea365627a7a72315820f5d706f49442f34371bb4a78828cbe967fef7710a3e12aa54683ffab3564849c6c6578706572696d656e74616cf564736f6c63430005100040",
  "source": "// SPDX-License-Identifier: MIT\npragma solidity >=0.4.21 <0.8.12;\npragma experimental ABIEncoderV2;\n\ncontract SimpleStorage {\n  uint storedData;\n\n  struct Item {\n    uint pid;\n    string pname;\n    string pcatg;\n    uint qty;\n  }\n\n  struct Auth{\n    string id;\n    string pass;\n  }\n  mapping(uint => Item) public idmap;\n  uint [] public allitems;\n  Item item;\n\n  event itemadded(\n    uint pid,\n    string pname,\n    string pcatg,\n    uint qty\n  );\n\n\n  \n  \n  function readauth() pure public returns(Auth memory a) {\n    Auth memory auth1;\n    auth1 = Auth( \"colonelsmart\",\"kernel@123\");\n    return auth1;\n\n  }\n  function set( uint _pid,  string memory _pname, string memory _pcatg, uint _qty) public  {\n    require(_pid > 0);\n    require(bytes(_pname).length > 0);\n    require(bytes(_pcatg).length > 0);\n    require(_qty > 0);\n    \n    item = Item(_pid,_pname,_pcatg,_qty);\n    idmap[_pid] = item;\n\n    allitems.push(_pid);\n\n    emit itemadded(_pid, _pname, _pcatg, _qty);\n  }\n\n  function get(uint proid) public view returns (string memory s) {\n    for (uint i=0;i< allitems.length;i++){\n      if ( proid == allitems[i]){\n        Item memory curritem;\n        curritem = idmap[proid];\n        return curritem.pname;\n      }\n    }\n  }\n}\n",
  "sourcePath": "C:/Users/ACE/Desktop/Build2.0/contracts/SimpleStorage.sol",
  "compiler": {
    "name": "solc",
    "version": "0.5.16+commit.9c3226ce.Emscripten.clang"
  },
  "schemaVersion": "3.4.1",
  "updatedAt": "2021-11-10T15:24:11.386Z",
  "networkType": "ethereum",
  "devdoc": {
    "methods": {}
  },
  "userdoc": {
    "methods": {}
  }
}