{
  "contractName": "SimpleStorage",
  "abi": [
    {
      "anonymous": false,
      "inputs": [
        {
          "indexed": false,
          "internalType": "uint256",
          "name": "pid",
          "type": "uint256"
        },
        {
          "indexed": false,
          "internalType": "string",
          "name": "pname",
          "type": "string"
        },
        {
          "indexed": false,
          "internalType": "uint256",
          "name": "qty",
          "type": "uint256"
        },
        {
          "indexed": false,
          "internalType": "string",
          "name": "catg",
          "type": "string"
        }
      ],
      "name": "itemadded",
      "type": "event"
    },
    {
      "constant": true,
      "inputs": [
        {
          "internalType": "uint256",
          "name": "",
          "type": "uint256"
        }
      ],
      "name": "allcat",
      "outputs": [
        {
          "internalType": "string",
          "name": "",
          "type": "string"
        }
      ],
      "payable": false,
      "stateMutability": "view",
      "type": "function"
    },
    {
      "constant": true,
      "inputs": [
        {
          "internalType": "uint256",
          "name": "",
          "type": "uint256"
        }
      ],
      "name": "allitems",
      "outputs": [
        {
          "internalType": "uint256",
          "name": "pid",
          "type": "uint256"
        },
        {
          "internalType": "string",
          "name": "pname",
          "type": "string"
        },
        {
          "internalType": "uint256",
          "name": "qty",
          "type": "uint256"
        },
        {
          "internalType": "string",
          "name": "catg",
          "type": "string"
        }
      ],
      "payable": false,
      "stateMutability": "view",
      "type": "function"
    },
    {
      "constant": false,
      "inputs": [
        {
          "internalType": "string",
          "name": "_cat",
          "type": "string"
        }
      ],
      "name": "addcategory",
      "outputs": [],
      "payable": false,
      "stateMutability": "nonpayable",
      "type": "function"
    },
    {
      "constant": true,
      "inputs": [],
      "name": "fetchallcat",
      "outputs": [
        {
          "internalType": "string[]",
          "name": "",
          "type": "string[]"
        }
      ],
      "payable": false,
      "stateMutability": "view",
      "type": "function"
    },
    {
      "constant": true,
      "inputs": [],
      "name": "fetchallitems",
      "outputs": [
        {
          "components": [
            {
              "internalType": "uint256",
              "name": "pid",
              "type": "uint256"
            },
            {
              "internalType": "string",
              "name": "pname",
              "type": "string"
            },
            {
              "internalType": "uint256",
              "name": "qty",
              "type": "uint256"
            },
            {
              "internalType": "string",
              "name": "catg",
              "type": "string"
            }
          ],
          "internalType": "struct SimpleStorage.Item[]",
          "name": "",
          "type": "tuple[]"
        }
      ],
      "payable": false,
      "stateMutability": "view",
      "type": "function"
    },
    {
      "constant": true,
      "inputs": [],
      "name": "readauth",
      "outputs": [
        {
          "components": [
            {
              "internalType": "string",
              "name": "id",
              "type": "string"
            },
            {
              "internalType": "string",
              "name": "pass",
              "type": "string"
            }
          ],
          "internalType": "struct SimpleStorage.Auth",
          "name": "a",
          "type": "tuple"
        }
      ],
      "payable": false,
      "stateMutability": "pure",
      "type": "function"
    },
    {
      "constant": false,
      "inputs": [
        {
          "internalType": "uint256",
          "name": "_pid",
          "type": "uint256"
        },
        {
          "internalType": "string",
          "name": "_pname",
          "type": "string"
        },
        {
          "internalType": "uint256",
          "name": "_qty",
          "type": "uint256"
        },
        {
          "internalType": "string",
          "name": "_catg",
          "type": "string"
        }
      ],
      "name": "set",
      "outputs": [],
      "payable": false,
      "stateMutability": "nonpayable",
      "type": "function"
    }
  ],
  "bytecode": "0x608060405234801561001057600080fd5b50611137806100206000396000f3fe608060405234801561001057600080fd5b506004361061007d5760003560e01c80639c2cdcc71161005b5780639c2cdcc7146100da578063b1405b58146100f8578063d4c3d7e114610114578063e29d3195146101475761007d565b8063319f8c9a14610082578063814dd0c7146100a057806395302a65146100be575b600080fd5b61008a610177565b6040516100979190610eb5565b60405180910390f35b6100a861020f565b6040516100b59190610e4f565b60405180910390f35b6100d860048036036100d39190810190610ac9565b6102f8565b005b6100e2610348565b6040516100ef9190610e71565b60405180910390f35b610112600480360361010d9190810190610b33565b6104ff565b005b61012e60048036036101299190810190610b0a565b610674565b60405161013e9493929190610f2a565b60405180910390f35b610161600480360361015c9190810190610b0a565b6107e1565b60405161016e9190610e93565b60405180910390f35b61017f61089a565b61018761089a565b60405180604001604052806040518060400160405280600c81526020017f636f6c6f6e656c736d617274000000000000000000000000000000000000000081525081526020016040518060400160405280600a81526020017f6b65726e656c403132330000000000000000000000000000000000000000000081525081525090508091505090565b60606002805480602002602001604051908101604052809291908181526020016000905b828210156102ef578382906000526020600020018054600181600116156101000203166002900480601f0160208091040260200160405190810160405280929190818152602001828054600181600116156101000203166002900480156102db5780601f106102b0576101008083540402835291602001916102db565b820191906000526020600020905b8154815290600101906020018083116102be57829003601f168201915b505050505081526020019060010190610233565b50505050905090565b600081511161030657600080fd5b60028190806001815401808255809150509060018203906000526020600020016000909192909190915090805190602001906103439291906108b4565b505050565b60606001805480602002602001604051908101604052809291908181526020016000905b828210156104f6578382906000526020600020906004020160405180608001604052908160008201548152602001600182018054600181600116156101000203166002900480601f0160208091040260200160405190810160405280929190818152602001828054600181600116156101000203166002900480156104325780601f1061040757610100808354040283529160200191610432565b820191906000526020600020905b81548152906001019060200180831161041557829003601f168201915b5050505050815260200160028201548152602001600382018054600181600116156101000203166002900480601f0160208091040260200160405190810160405280929190818152602001828054600181600116156101000203166002900480156104de5780601f106104b3576101008083540402835291602001916104de565b820191906000526020600020905b8154815290600101906020018083116104c157829003601f168201915b5050505050815250508152602001906001019061036c565b50505050905090565b6000841161050c57600080fd5b600083511161051a57600080fd5b6000821161052757600080fd5b6040518060800160405280858152602001848152602001838152602001828152506003600082015181600001556020820151816001019080519060200190610570929190610934565b50604082015181600201556060820151816003019080519060200190610597929190610934565b50905050600160039080600181540180825580915050906001820390600052602060002090600402016000909192909190915060008201548160000155600182018160010190805460018160011615610100020316600290046105fb9291906109b4565b50600282015481600201556003820181600301908054600181600116156101000203166002900461062d9291906109b4565b505050507fa1b9d1896493318d68660c0e1ec483722a6ab8fe89bd2682235a25d3e7355d09848484846040516106669493929190610ed7565b60405180910390a150505050565b6001818154811061068157fe5b9060005260206000209060040201600091509050806000015490806001018054600181600116156101000203166002900480601f0160208091040260200160405190810160405280929190818152602001828054600181600116156101000203166002900480156107335780601f1061070857610100808354040283529160200191610733565b820191906000526020600020905b81548152906001019060200180831161071657829003601f168201915b505050505090806002015490806003018054600181600116156101000203166002900480601f0160208091040260200160405190810160405280929190818152602001828054600181600116156101000203166002900480156107d75780601f106107ac576101008083540402835291602001916107d7565b820191906000526020600020905b8154815290600101906020018083116107ba57829003601f168201915b5050505050905084565b600281815481106107ee57fe5b906000526020600020016000915090508054600181600116156101000203166002900480601f0160208091040260200160405190810160405280929190818152602001828054600181600116156101000203166002900480156108925780601f1061086757610100808354040283529160200191610892565b820191906000526020600020905b81548152906001019060200180831161087557829003601f168201915b505050505081565b604051806040016040528060608152602001606081525090565b828054600181600116156101000203166002900490600052602060002090601f016020900481019282601f106108f557805160ff1916838001178555610923565b82800160010185558215610923579182015b82811115610922578251825591602001919060010190610907565b5b5090506109309190610a3b565b5090565b828054600181600116156101000203166002900490600052602060002090601f016020900481019282601f1061097557805160ff19168380011785556109a3565b828001600101855582156109a3579182015b828111156109a2578251825591602001919060010190610987565b5b5090506109b09190610a3b565b5090565b828054600181600116156101000203166002900490600052602060002090601f016020900481019282601f106109ed5780548555610a2a565b82800160010185558215610a2a57600052602060002091601f016020900482015b82811115610a29578254825591600101919060010190610a0e565b5b509050610a379190610a3b565b5090565b610a5d91905b80821115610a59576000816000905550600101610a41565b5090565b90565b600082601f830112610a7157600080fd5b8135610a84610a7f82610faa565b610f7d565b91508082526020830160208301858383011115610aa057600080fd5b610aab83828461108a565b50505092915050565b600081359050610ac3816110dd565b92915050565b600060208284031215610adb57600080fd5b600082013567ffffffffffffffff811115610af557600080fd5b610b0184828501610a60565b91505092915050565b600060208284031215610b1c57600080fd5b6000610b2a84828501610ab4565b91505092915050565b60008060008060808587031215610b4957600080fd5b6000610b5787828801610ab4565b945050602085013567ffffffffffffffff811115610b7457600080fd5b610b8087828801610a60565b9350506040610b9187828801610ab4565b925050606085013567ffffffffffffffff811115610bae57600080fd5b610bba87828801610a60565b91505092959194509250565b6000610bd28383610d11565b905092915050565b6000610be68383610dc7565b905092915050565b6000610bf982610ff6565b610c03818561103c565b935083602082028501610c1585610fd6565b8060005b85811015610c515784840389528151610c328582610bc6565b9450610c3d83611022565b925060208a01995050600181019050610c19565b50829750879550505050505092915050565b6000610c6e82611001565b610c78818561104d565b935083602082028501610c8a85610fe6565b8060005b85811015610cc65784840389528151610ca78582610bda565b9450610cb28361102f565b925060208a01995050600181019050610c8e565b50829750879550505050505092915050565b6000610ce382611017565b610ced818561106f565b9350610cfd818560208601611099565b610d06816110cc565b840191505092915050565b6000610d1c8261100c565b610d26818561105e565b9350610d36818560208601611099565b610d3f816110cc565b840191505092915050565b6000610d558261100c565b610d5f818561106f565b9350610d6f818560208601611099565b610d78816110cc565b840191505092915050565b60006040830160008301518482036000860152610da08282610d11565b91505060208301518482036020860152610dba8282610d11565b9150508091505092915050565b6000608083016000830151610ddf6000860182610e31565b5060208301518482036020860152610df78282610d11565b9150506040830151610e0c6040860182610e31565b5060608301518482036060860152610e248282610d11565b9150508091505092915050565b610e3a81611080565b82525050565b610e4981611080565b82525050565b60006020820190508181036000830152610e698184610bee565b905092915050565b60006020820190508181036000830152610e8b8184610c63565b905092915050565b60006020820190508181036000830152610ead8184610d4a565b905092915050565b60006020820190508181036000830152610ecf8184610d83565b905092915050565b6000608082019050610eec6000830187610e40565b8181036020830152610efe8186610cd8565b9050610f0d6040830185610e40565b8181036060830152610f1f8184610cd8565b905095945050505050565b6000608082019050610f3f6000830187610e40565b8181036020830152610f518186610d4a565b9050610f606040830185610e40565b8181036060830152610f728184610d4a565b905095945050505050565b6000604051905081810181811067ffffffffffffffff82111715610fa057600080fd5b8060405250919050565b600067ffffffffffffffff821115610fc157600080fd5b601f19601f8301169050602081019050919050565b6000819050602082019050919050565b6000819050602082019050919050565b600081519050919050565b600081519050919050565b600081519050919050565b600081519050919050565b6000602082019050919050565b6000602082019050919050565b600082825260208201905092915050565b600082825260208201905092915050565b600082825260208201905092915050565b600082825260208201905092915050565b6000819050919050565b82818337600083830152505050565b60005b838110156110b757808201518184015260208101905061109c565b838111156110c6576000848401525b50505050565b6000601f19601f8301169050919050565b6110e681611080565b81146110f157600080fd5b5056fea365627a7a72315820072d393dd9d249584cc4042fe5b81115b0867e2afa83735016b835b1a349f6c16c6578706572696d656e74616cf564736f6c63430005100040",
  "source": "// SPDX-License-Identifier: MIT\r\npragma solidity >=0.4.21 <0.8.12;\r\npragma experimental ABIEncoderV2;\r\n\r\ncontract SimpleStorage {\r\n  uint storedData;\r\n\r\n  struct Item {\r\n    uint pid;\r\n    string pname;\r\n    uint qty;\r\n    string catg;\r\n  }\r\n\r\n  struct Auth{\r\n    string id;\r\n    string pass;\r\n  }\r\n\r\n  Item [] public allitems;\r\n\r\n  string [] public allcat;\r\n  Item item;\r\n\r\n\r\n  event itemadded(\r\n    uint pid,\r\n    string pname,\r\n    uint qty,\r\n    string catg\r\n  );\r\n\r\n\r\n  function addcategory(string memory _cat) public {\r\n    require(bytes(_cat).length > 0);\r\n    allcat.push(_cat);\r\n  }\r\n\r\n  function fetchallcat() public view returns(string[] memory ) {\r\n    return allcat;\r\n  }\r\n\r\n  function fetchallitems() public view returns(Item [] memory){\r\n    return allitems;\r\n  }\r\n\r\n\r\n  function readauth() pure public returns(Auth memory a) {\r\n    Auth memory auth1;\r\n    auth1 = Auth( \"colonelsmart\",\"kernel@123\");\r\n    return auth1;\r\n\r\n  }\r\n\r\n  function set( uint _pid,  string memory _pname, uint _qty, string memory _catg) public  {\r\n    require(_pid > 0);\r\n    require(bytes(_pname).length > 0);\r\n    require(_qty > 0);\r\n\r\n    item = Item(_pid,_pname,_qty,_catg);\r\n    allitems.push(item);\r\n\r\n    emit itemadded(_pid, _pname, _qty,_catg);\r\n  }\r\n\r\n}\r\n",
  "sourcePath": "E:\\build\\LogiBlock\\contracts\\SimpleStorage.sol",
  "compiler": {
    "name": "solc",
    "version": "0.5.16+commit.9c3226ce.Emscripten.clang"
  },
  "schemaVersion": "3.4.3",
  "updatedAt": "2021-11-13T00:46:49.929Z",
  "networkType": "ethereum",
  "devdoc": {
    "methods": {}
  },
  "userdoc": {
    "methods": {}
  }
}