{
  "contractName": "SimpleStorage",
  "abi": [
    {
      "anonymous": false,
      "inputs": [
        {
          "indexed": false,
          "internalType": "uint256",
          "name": "pid",
          "type": "uint256"
        },
        {
          "indexed": false,
          "internalType": "string",
          "name": "pname",
          "type": "string"
        },
        {
          "indexed": false,
          "internalType": "uint256",
          "name": "qty",
          "type": "uint256"
        },
        {
          "indexed": false,
          "internalType": "string",
          "name": "catg",
          "type": "string"
        }
      ],
      "name": "itemadded",
      "type": "event"
    },
    {
      "constant": true,
      "inputs": [
        {
          "internalType": "uint256",
          "name": "",
          "type": "uint256"
        }
      ],
      "name": "allcat",
      "outputs": [
        {
          "internalType": "string",
          "name": "",
          "type": "string"
        }
      ],
      "payable": false,
      "stateMutability": "view",
      "type": "function"
    },
    {
      "constant": true,
      "inputs": [
        {
          "internalType": "uint256",
          "name": "",
          "type": "uint256"
        }
      ],
      "name": "allitems",
      "outputs": [
        {
          "internalType": "uint256",
          "name": "pid",
          "type": "uint256"
        },
        {
          "internalType": "string",
          "name": "pname",
          "type": "string"
        },
        {
          "internalType": "uint256",
          "name": "qty",
          "type": "uint256"
        },
        {
          "internalType": "string",
          "name": "catg",
          "type": "string"
        }
      ],
      "payable": false,
      "stateMutability": "view",
      "type": "function"
    },
    {
      "constant": false,
      "inputs": [
        {
          "internalType": "string",
          "name": "_cat",
          "type": "string"
        }
      ],
      "name": "addcategory",
      "outputs": [],
      "payable": false,
      "stateMutability": "nonpayable",
      "type": "function"
    },
    {
      "constant": true,
      "inputs": [],
      "name": "fetchallcat",
      "outputs": [
        {
          "internalType": "string[]",
          "name": "",
          "type": "string[]"
        }
      ],
      "payable": false,
      "stateMutability": "view",
      "type": "function"
    },
    {
      "constant": true,
      "inputs": [],
      "name": "fetchallitems",
      "outputs": [
        {
          "components": [
            {
              "internalType": "uint256",
              "name": "pid",
              "type": "uint256"
            },
            {
              "internalType": "string",
              "name": "pname",
              "type": "string"
            },
            {
              "internalType": "uint256",
              "name": "qty",
              "type": "uint256"
            },
            {
              "internalType": "string",
              "name": "catg",
              "type": "string"
            }
          ],
          "internalType": "struct SimpleStorage.Item[]",
          "name": "",
          "type": "tuple[]"
        }
      ],
      "payable": false,
      "stateMutability": "view",
      "type": "function"
    },
    {
      "constant": true,
      "inputs": [],
      "name": "readauth",
      "outputs": [
        {
          "components": [
            {
              "internalType": "string",
              "name": "id",
              "type": "string"
            },
            {
              "internalType": "string",
              "name": "pass",
              "type": "string"
            }
          ],
          "internalType": "struct SimpleStorage.Auth",
          "name": "a",
          "type": "tuple"
        }
      ],
      "payable": false,
      "stateMutability": "pure",
      "type": "function"
    },
    {
      "constant": false,
      "inputs": [
        {
          "internalType": "uint256",
          "name": "_pid",
          "type": "uint256"
        },
        {
          "internalType": "string",
          "name": "_pname",
          "type": "string"
        },
        {
          "internalType": "uint256",
          "name": "_qty",
          "type": "uint256"
        },
        {
          "internalType": "string",
          "name": "_catg",
          "type": "string"
        }
      ],
      "name": "set",
      "outputs": [],
      "payable": false,
      "stateMutability": "nonpayable",
      "type": "function"
    },
    {
      "constant": false,
      "inputs": [
        {
          "internalType": "uint256",
          "name": "index",
          "type": "uint256"
        }
      ],
      "name": "remove",
      "outputs": [],
      "payable": false,
      "stateMutability": "nonpayable",
      "type": "function"
    },
    {
      "constant": false,
      "inputs": [
        {
          "internalType": "uint256",
          "name": "index",
          "type": "uint256"
        },
        {
          "internalType": "uint256",
          "name": "qnty",
          "type": "uint256"
        }
      ],
      "name": "edit",
      "outputs": [],
      "payable": false,
      "stateMutability": "nonpayable",
      "type": "function"
    }
  ],
  "bytecode": "0x608060405234801561001057600080fd5b5061136d806100206000396000f3fe608060405234801561001057600080fd5b50600436106100935760003560e01c806395302a651161006657806395302a651461010c5780639c2cdcc714610128578063b1405b5814610146578063d4c3d7e114610162578063e29d31951461019557610093565b8063319f8c9a146100985780634cc82215146100b657806353b619a3146100d2578063814dd0c7146100ee575b600080fd5b6100a06101c5565b6040516100ad91906110eb565b60405180910390f35b6100d060048036036100cb9190810190610d04565b61025d565b005b6100ec60048036036100e79190810190610dc0565b610388565b005b6100f66103c1565b6040516101039190611085565b60405180910390f35b61012660048036036101219190810190610cc3565b6104aa565b005b6101306104fa565b60405161013d91906110a7565b60405180910390f35b610160600480360361015b9190810190610d2d565b6106b1565b005b61017c60048036036101779190810190610d04565b610826565b60405161018c9493929190611160565b60405180910390f35b6101af60048036036101aa9190810190610d04565b610993565b6040516101bc91906110c9565b60405180910390f35b6101cd610a4c565b6101d5610a4c565b60405180604001604052806040518060400160405280600c81526020017f636f6c6f6e656c736d617274000000000000000000000000000000000000000081525081526020016040518060400160405280600a81526020017f6b65726e656c403132330000000000000000000000000000000000000000000081525081525090508091505090565b600180549050811061026e57610385565b60008190505b600180805490500381101561032f5760018082018154811061029257fe5b9060005260206000209060040201600182815481106102ad57fe5b906000526020600020906004020160008201548160000155600182018160010190805460018160011615610100020316600290046102ec929190610a66565b50600282015481600201556003820181600301908054600181600116156101000203166002900461031e929190610a66565b509050508080600101915050610274565b50600180548061033b57fe5b60019003818190600052602060002090600402016000808201600090556001820160006103689190610aed565b60028201600090556003820160006103809190610aed565b505090555b50565b6001805490508210610399576103bd565b80600183815481106103a757fe5b9060005260206000209060040201600201819055505b5050565b60606002805480602002602001604051908101604052809291908181526020016000905b828210156104a1578382906000526020600020018054600181600116156101000203166002900480601f01602080910402602001604051908101604052809291908181526020018280546001816001161561010002031660029004801561048d5780601f106104625761010080835404028352916020019161048d565b820191906000526020600020905b81548152906001019060200180831161047057829003601f168201915b5050505050815260200190600101906103e5565b50505050905090565b60008151116104b857600080fd5b60028190806001815401808255809150509060018203906000526020600020016000909192909190915090805190602001906104f5929190610b35565b505050565b60606001805480602002602001604051908101604052809291908181526020016000905b828210156106a8578382906000526020600020906004020160405180608001604052908160008201548152602001600182018054600181600116156101000203166002900480601f0160208091040260200160405190810160405280929190818152602001828054600181600116156101000203166002900480156105e45780601f106105b9576101008083540402835291602001916105e4565b820191906000526020600020905b8154815290600101906020018083116105c757829003601f168201915b5050505050815260200160028201548152602001600382018054600181600116156101000203166002900480601f0160208091040260200160405190810160405280929190818152602001828054600181600116156101000203166002900480156106905780601f1061066557610100808354040283529160200191610690565b820191906000526020600020905b81548152906001019060200180831161067357829003601f168201915b5050505050815250508152602001906001019061051e565b50505050905090565b600084116106be57600080fd5b60008351116106cc57600080fd5b600082116106d957600080fd5b6040518060800160405280858152602001848152602001838152602001828152506003600082015181600001556020820151816001019080519060200190610722929190610bb5565b50604082015181600201556060820151816003019080519060200190610749929190610bb5565b50905050600160039080600181540180825580915050906001820390600052602060002090600402016000909192909190915060008201548160000155600182018160010190805460018160011615610100020316600290046107ad929190610a66565b5060028201548160020155600382018160030190805460018160011615610100020316600290046107df929190610a66565b505050507fa1b9d1896493318d68660c0e1ec483722a6ab8fe89bd2682235a25d3e7355d0984848484604051610818949392919061110d565b60405180910390a150505050565b6001818154811061083357fe5b9060005260206000209060040201600091509050806000015490806001018054600181600116156101000203166002900480601f0160208091040260200160405190810160405280929190818152602001828054600181600116156101000203166002900480156108e55780601f106108ba576101008083540402835291602001916108e5565b820191906000526020600020905b8154815290600101906020018083116108c857829003601f168201915b505050505090806002015490806003018054600181600116156101000203166002900480601f0160208091040260200160405190810160405280929190818152602001828054600181600116156101000203166002900480156109895780601f1061095e57610100808354040283529160200191610989565b820191906000526020600020905b81548152906001019060200180831161096c57829003601f168201915b5050505050905084565b600281815481106109a057fe5b906000526020600020016000915090508054600181600116156101000203166002900480601f016020809104026020016040519081016040528092919081815260200182805460018160011615610100020316600290048015610a445780601f10610a1957610100808354040283529160200191610a44565b820191906000526020600020905b815481529060010190602001808311610a2757829003601f168201915b505050505081565b604051806040016040528060608152602001606081525090565b828054600181600116156101000203166002900490600052602060002090601f016020900481019282601f10610a9f5780548555610adc565b82800160010185558215610adc57600052602060002091601f016020900482015b82811115610adb578254825591600101919060010190610ac0565b5b509050610ae99190610c35565b5090565b50805460018160011615610100020316600290046000825580601f10610b135750610b32565b601f016020900490600052602060002090810190610b319190610c35565b5b50565b828054600181600116156101000203166002900490600052602060002090601f016020900481019282601f10610b7657805160ff1916838001178555610ba4565b82800160010185558215610ba4579182015b82811115610ba3578251825591602001919060010190610b88565b5b509050610bb19190610c35565b5090565b828054600181600116156101000203166002900490600052602060002090601f016020900481019282601f10610bf657805160ff1916838001178555610c24565b82800160010185558215610c24579182015b82811115610c23578251825591602001919060010190610c08565b5b509050610c319190610c35565b5090565b610c5791905b80821115610c53576000816000905550600101610c3b565b5090565b90565b600082601f830112610c6b57600080fd5b8135610c7e610c79826111e0565b6111b3565b91508082526020830160208301858383011115610c9a57600080fd5b610ca58382846112c0565b50505092915050565b600081359050610cbd81611313565b92915050565b600060208284031215610cd557600080fd5b600082013567ffffffffffffffff811115610cef57600080fd5b610cfb84828501610c5a565b91505092915050565b600060208284031215610d1657600080fd5b6000610d2484828501610cae565b91505092915050565b60008060008060808587031215610d4357600080fd5b6000610d5187828801610cae565b945050602085013567ffffffffffffffff811115610d6e57600080fd5b610d7a87828801610c5a565b9350506040610d8b87828801610cae565b925050606085013567ffffffffffffffff811115610da857600080fd5b610db487828801610c5a565b91505092959194509250565b60008060408385031215610dd357600080fd5b6000610de185828601610cae565b9250506020610df285828601610cae565b9150509250929050565b6000610e088383610f47565b905092915050565b6000610e1c8383610ffd565b905092915050565b6000610e2f8261122c565b610e398185611272565b935083602082028501610e4b8561120c565b8060005b85811015610e875784840389528151610e688582610dfc565b9450610e7383611258565b925060208a01995050600181019050610e4f565b50829750879550505050505092915050565b6000610ea482611237565b610eae8185611283565b935083602082028501610ec08561121c565b8060005b85811015610efc5784840389528151610edd8582610e10565b9450610ee883611265565b925060208a01995050600181019050610ec4565b50829750879550505050505092915050565b6000610f198261124d565b610f2381856112a5565b9350610f338185602086016112cf565b610f3c81611302565b840191505092915050565b6000610f5282611242565b610f5c8185611294565b9350610f6c8185602086016112cf565b610f7581611302565b840191505092915050565b6000610f8b82611242565b610f9581856112a5565b9350610fa58185602086016112cf565b610fae81611302565b840191505092915050565b60006040830160008301518482036000860152610fd68282610f47565b91505060208301518482036020860152610ff08282610f47565b9150508091505092915050565b60006080830160008301516110156000860182611067565b506020830151848203602086015261102d8282610f47565b91505060408301516110426040860182611067565b506060830151848203606086015261105a8282610f47565b9150508091505092915050565b611070816112b6565b82525050565b61107f816112b6565b82525050565b6000602082019050818103600083015261109f8184610e24565b905092915050565b600060208201905081810360008301526110c18184610e99565b905092915050565b600060208201905081810360008301526110e38184610f80565b905092915050565b600060208201905081810360008301526111058184610fb9565b905092915050565b60006080820190506111226000830187611076565b81810360208301526111348186610f0e565b90506111436040830185611076565b81810360608301526111558184610f0e565b905095945050505050565b60006080820190506111756000830187611076565b81810360208301526111878186610f80565b90506111966040830185611076565b81810360608301526111a88184610f80565b905095945050505050565b6000604051905081810181811067ffffffffffffffff821117156111d657600080fd5b8060405250919050565b600067ffffffffffffffff8211156111f757600080fd5b601f19601f8301169050602081019050919050565b6000819050602082019050919050565b6000819050602082019050919050565b600081519050919050565b600081519050919050565b600081519050919050565b600081519050919050565b6000602082019050919050565b6000602082019050919050565b600082825260208201905092915050565b600082825260208201905092915050565b600082825260208201905092915050565b600082825260208201905092915050565b6000819050919050565b82818337600083830152505050565b60005b838110156112ed5780820151818401526020810190506112d2565b838111156112fc576000848401525b50505050565b6000601f19601f8301169050919050565b61131c816112b6565b811461132757600080fd5b5056fea365627a7a72315820ad284d332c0f504ec022d43fb5a61f7f5a0d1032356b1416e7ddf7654cf4c7eb6c6578706572696d656e74616cf564736f6c63430005100040",
  "source": "// SPDX-License-Identifier: MIT\r\npragma solidity >=0.4.21 <0.8.12;\r\npragma experimental ABIEncoderV2;\r\n\r\ncontract SimpleStorage {\r\n  uint storedData;\r\n\r\n  struct Item {\r\n    uint pid;\r\n    string pname;\r\n    uint qty;\r\n    string catg;\r\n  }\r\n\r\n  struct Auth{\r\n    string id;\r\n    string pass;\r\n  }\r\n\r\n  Item [] public allitems;\r\n\r\n  string [] public allcat;\r\n  Item item;\r\n\r\n\r\n  event itemadded(\r\n    uint pid,\r\n    string pname,\r\n    uint qty,\r\n    string catg\r\n  );\r\n\r\n\r\n  function addcategory(string memory _cat) public {\r\n    require(bytes(_cat).length > 0);\r\n    allcat.push(_cat);\r\n  }\r\n\r\n  function fetchallcat() public view returns(string[] memory ) {\r\n    return allcat;\r\n  }\r\n\r\n  function fetchallitems() public view returns(Item [] memory){\r\n    return allitems;\r\n  }\r\n\r\n\r\n  function readauth() pure public returns(Auth memory a) {\r\n    Auth memory auth1;\r\n    auth1 = Auth( \"colonelsmart\",\"kernel@123\");\r\n    return auth1;\r\n\r\n  }\r\n\r\n  function set( uint _pid,  string memory _pname, uint _qty, string memory _catg) public  {\r\n    require(_pid > 0);\r\n    require(bytes(_pname).length > 0);\r\n    require(_qty > 0);\r\n\r\n    item = Item(_pid,_pname,_qty,_catg);\r\n    allitems.push(item);\r\n\r\n    emit itemadded(_pid, _pname, _qty,_catg);\r\n  }\r\n\r\n  function remove(uint256 index) public {\r\n        if (index >= allitems.length) return;\r\n\r\n        for (uint256 i = index; i < allitems.length - 1; i++) {\r\n            allitems[i] = allitems[i + 1];\r\n        }\r\n        allitems.pop();\r\n    }\r\n\r\n    function edit(uint256 index, uint256 qnty) public {\r\n        if (index >= allitems.length) return;\r\n\r\n        allitems[index].qty = qnty;\r\n    }\r\n}\r\n",
  "sourcePath": "D:\\LogiBlock_latest\\LogiBlock\\contracts\\SimpleStorage.sol",
  "compiler": {
    "name": "solc",
    "version": "0.5.16+commit.9c3226ce.Emscripten.clang"
  },
  "schemaVersion": "3.4.3",
  "updatedAt": "2021-11-13T16:07:01.922Z",
  "networkType": "ethereum",
  "devdoc": {
    "methods": {}
  },
  "userdoc": {
    "methods": {}
  }
}