{
  "contractName": "SimpleStorage",
  "abi": [
    {
      "anonymous": false,
      "inputs": [
        {
          "indexed": false,
          "internalType": "uint256",
          "name": "pid",
          "type": "uint256"
        },
        {
          "indexed": false,
          "internalType": "string",
          "name": "pname",
          "type": "string"
        },
        {
          "indexed": false,
          "internalType": "uint256",
          "name": "qty",
          "type": "uint256"
        }
      ],
      "name": "itemadded",
      "type": "event"
    },
    {
      "constant": true,
      "inputs": [
        {
          "internalType": "uint256",
          "name": "",
          "type": "uint256"
        }
      ],
      "name": "allcat",
      "outputs": [
        {
          "internalType": "string",
          "name": "",
          "type": "string"
        }
      ],
      "payable": false,
      "stateMutability": "view",
      "type": "function"
    },
    {
      "constant": true,
      "inputs": [
        {
          "internalType": "uint256",
          "name": "",
          "type": "uint256"
        }
      ],
      "name": "allitems",
      "outputs": [
        {
          "internalType": "uint256",
          "name": "",
          "type": "uint256"
        }
      ],
      "payable": false,
      "stateMutability": "view",
      "type": "function"
    },
    {
      "constant": true,
      "inputs": [
        {
          "internalType": "uint256",
          "name": "",
          "type": "uint256"
        }
      ],
      "name": "idmap",
      "outputs": [
        {
          "internalType": "uint256",
          "name": "pid",
          "type": "uint256"
        },
        {
          "internalType": "string",
          "name": "pname",
          "type": "string"
        },
        {
          "internalType": "uint256",
          "name": "qty",
          "type": "uint256"
        }
      ],
      "payable": false,
      "stateMutability": "view",
      "type": "function"
    },
    {
      "constant": true,
      "inputs": [
        {
          "internalType": "uint256",
          "name": "",
          "type": "uint256"
        }
      ],
      "name": "pid_to_cat",
      "outputs": [
        {
          "internalType": "string",
          "name": "",
          "type": "string"
        }
      ],
      "payable": false,
      "stateMutability": "view",
      "type": "function"
    },
    {
      "constant": false,
      "inputs": [
        {
          "internalType": "string",
          "name": "_cat",
          "type": "string"
        }
      ],
      "name": "addcategory",
      "outputs": [],
      "payable": false,
      "stateMutability": "nonpayable",
      "type": "function"
    },
    {
      "constant": true,
      "inputs": [],
      "name": "fetchallcat",
      "outputs": [
        {
          "internalType": "string[]",
          "name": "",
          "type": "string[]"
        }
      ],
      "payable": false,
      "stateMutability": "view",
      "type": "function"
    },
    {
      "constant": true,
      "inputs": [],
      "name": "readauth",
      "outputs": [
        {
          "components": [
            {
              "internalType": "string",
              "name": "id",
              "type": "string"
            },
            {
              "internalType": "string",
              "name": "pass",
              "type": "string"
            }
          ],
          "internalType": "struct SimpleStorage.Auth",
          "name": "a",
          "type": "tuple"
        }
      ],
      "payable": false,
      "stateMutability": "pure",
      "type": "function"
    },
    {
      "constant": false,
      "inputs": [
        {
          "internalType": "uint256",
          "name": "_pid",
          "type": "uint256"
        },
        {
          "internalType": "string",
          "name": "_pname",
          "type": "string"
        },
        {
          "internalType": "uint256",
          "name": "_qty",
          "type": "uint256"
        },
        {
          "internalType": "string",
          "name": "_catg",
          "type": "string"
        }
      ],
      "name": "set",
      "outputs": [],
      "payable": false,
      "stateMutability": "nonpayable",
      "type": "function"
    },
    {
      "constant": true,
      "inputs": [
        {
          "internalType": "uint256",
          "name": "proid",
          "type": "uint256"
        }
      ],
      "name": "get",
      "outputs": [
        {
          "internalType": "string",
          "name": "categoryofpid",
          "type": "string"
        },
        {
          "internalType": "string",
          "name": "pnameofpid",
          "type": "string"
        }
      ],
      "payable": false,
      "stateMutability": "view",
      "type": "function"
    }
  ],
  "bytecode": "0x608060405234801561001057600080fd5b506110f3806100206000396000f3fe608060405234801561001057600080fd5b50600436106100935760003560e01c806395302a651161006657806395302a6514610135578063b1405b5814610151578063ceb627511461016d578063d4c3d7e11461019f578063e29d3195146101cf57610093565b8063094a49ed14610098578063319f8c9a146100c8578063814dd0c7146100e65780639507d39a14610104575b600080fd5b6100b260048036036100ad9190810190610bfb565b6101ff565b6040516100bf9190610e60565b60405180910390f35b6100d06102af565b6040516100dd9190610eb9565b60405180910390f35b6100ee610347565b6040516100fb9190610e3e565b60405180910390f35b61011e60048036036101199190810190610bfb565b610430565b60405161012c929190610e82565b60405180910390f35b61014f600480360361014a9190810190610bba565b61061c565b005b61016b60048036036101669190810190610c24565b61066c565b005b61018760048036036101829190810190610bfb565b6107ce565b60405161019693929190610f34565b60405180910390f35b6101b960048036036101b49190810190610bfb565b610890565b6040516101c69190610edb565b60405180910390f35b6101e960048036036101e49190810190610bfb565b6108b1565b6040516101f69190610e60565b60405180910390f35b60076020528060005260406000206000915090508054600181600116156101000203166002900480601f0160208091040260200160405190810160405280929190818152602001828054600181600116156101000203166002900480156102a75780601f1061027c576101008083540402835291602001916102a7565b820191906000526020600020905b81548152906001019060200180831161028a57829003601f168201915b505050505081565b6102b761096a565b6102bf61096a565b60405180604001604052806040518060400160405280600c81526020017f636f6c6f6e656c736d617274000000000000000000000000000000000000000081525081526020016040518060400160405280600a81526020017f6b65726e656c403132330000000000000000000000000000000000000000000081525081525090508091505090565b60606003805480602002602001604051908101604052809291908181526020016000905b82821015610427578382906000526020600020018054600181600116156101000203166002900480601f0160208091040260200160405190810160405280929190818152602001828054600181600116156101000203166002900480156104135780601f106103e857610100808354040283529160200191610413565b820191906000526020600020905b8154815290600101906020018083116103f657829003601f168201915b50505050508152602001906001019061036b565b50505050905090565b60608060008090505b600280549050811015610615576002818154811061045357fe5b90600052602060002001548414156106085761046d610984565b6001600086815260200190815260200160002060405180606001604052908160008201548152602001600182018054600181600116156101000203166002900480601f01602080910402602001604051908101604052809291908181526020018280546001816001161561010002031660029004801561052e5780601f106105035761010080835404028352916020019161052e565b820191906000526020600020905b81548152906001019060200180831161051157829003601f168201915b5050505050815260200160028201548152505090506060600760008781526020019081526020016000208054600181600116156101000203166002900480601f0160208091040260200160405190810160405280929190818152602001828054600181600116156101000203166002900480156105ec5780601f106105c1576101008083540402835291602001916105ec565b820191906000526020600020905b8154815290600101906020018083116105cf57829003601f168201915b5050505050905080826020015180905094509450505050610617565b8080600101915050610439565b505b915091565b600081511161062a57600080fd5b60038190806001815401808255809150509060018203906000526020600020016000909192909190915090805190602001906106679291906109a5565b505050565b6000841161067957600080fd5b600083511161068757600080fd5b6000821161069457600080fd5b60405180606001604052808581526020018481526020018381525060046000820151816000015560208201518160010190805190602001906106d7929190610a25565b506040820151816002015590505060028490806001815401808255809150509060018203906000526020600020016000909192909190915055506004600160008681526020019081526020016000206000820154816000015560018201816001019080546001816001161561010002031660029004610757929190610aa5565b50600282015481600201559050508060076000868152602001908152602001600020908051906020019061078c9291906109a5565b507f3b0aff8223c2e7774c78026abe7ef06252b29dc766cba2c6b47d02add21354438484846040516107c093929190610ef6565b60405180910390a150505050565b6001602052806000526040600020600091509050806000015490806001018054600181600116156101000203166002900480601f0160208091040260200160405190810160405280929190818152602001828054600181600116156101000203166002900480156108805780601f1061085557610100808354040283529160200191610880565b820191906000526020600020905b81548152906001019060200180831161086357829003601f168201915b5050505050908060020154905083565b6002818154811061089d57fe5b906000526020600020016000915090505481565b600381815481106108be57fe5b906000526020600020016000915090508054600181600116156101000203166002900480601f0160208091040260200160405190810160405280929190818152602001828054600181600116156101000203166002900480156109625780601f1061093757610100808354040283529160200191610962565b820191906000526020600020905b81548152906001019060200180831161094557829003601f168201915b505050505081565b604051806040016040528060608152602001606081525090565b60405180606001604052806000815260200160608152602001600081525090565b828054600181600116156101000203166002900490600052602060002090601f016020900481019282601f106109e657805160ff1916838001178555610a14565b82800160010185558215610a14579182015b82811115610a135782518255916020019190600101906109f8565b5b509050610a219190610b2c565b5090565b828054600181600116156101000203166002900490600052602060002090601f016020900481019282601f10610a6657805160ff1916838001178555610a94565b82800160010185558215610a94579182015b82811115610a93578251825591602001919060010190610a78565b5b509050610aa19190610b2c565b5090565b828054600181600116156101000203166002900490600052602060002090601f016020900481019282601f10610ade5780548555610b1b565b82800160010185558215610b1b57600052602060002091601f016020900482015b82811115610b1a578254825591600101919060010190610aff565b5b509050610b289190610b2c565b5090565b610b4e91905b80821115610b4a576000816000905550600101610b32565b5090565b90565b600082601f830112610b6257600080fd5b8135610b75610b7082610f9f565b610f72565b91508082526020830160208301858383011115610b9157600080fd5b610b9c838284611046565b50505092915050565b600081359050610bb481611099565b92915050565b600060208284031215610bcc57600080fd5b600082013567ffffffffffffffff811115610be657600080fd5b610bf284828501610b51565b91505092915050565b600060208284031215610c0d57600080fd5b6000610c1b84828501610ba5565b91505092915050565b60008060008060808587031215610c3a57600080fd5b6000610c4887828801610ba5565b945050602085013567ffffffffffffffff811115610c6557600080fd5b610c7187828801610b51565b9350506040610c8287828801610ba5565b925050606085013567ffffffffffffffff811115610c9f57600080fd5b610cab87828801610b51565b91505092959194509250565b6000610cc38383610d79565b905092915050565b6000610cd682610fdb565b610ce08185611009565b935083602082028501610cf285610fcb565b8060005b85811015610d2e5784840389528151610d0f8582610cb7565b9450610d1a83610ffc565b925060208a01995050600181019050610cf6565b50829750879550505050505092915050565b6000610d4b82610ff1565b610d55818561102b565b9350610d65818560208601611055565b610d6e81611088565b840191505092915050565b6000610d8482610fe6565b610d8e818561101a565b9350610d9e818560208601611055565b610da781611088565b840191505092915050565b6000610dbd82610fe6565b610dc7818561102b565b9350610dd7818560208601611055565b610de081611088565b840191505092915050565b60006040830160008301518482036000860152610e088282610d79565b91505060208301518482036020860152610e228282610d79565b9150508091505092915050565b610e388161103c565b82525050565b60006020820190508181036000830152610e588184610ccb565b905092915050565b60006020820190508181036000830152610e7a8184610db2565b905092915050565b60006040820190508181036000830152610e9c8185610d40565b90508181036020830152610eb08184610d40565b90509392505050565b60006020820190508181036000830152610ed38184610deb565b905092915050565b6000602082019050610ef06000830184610e2f565b92915050565b6000606082019050610f0b6000830186610e2f565b8181036020830152610f1d8185610d40565b9050610f2c6040830184610e2f565b949350505050565b6000606082019050610f496000830186610e2f565b8181036020830152610f5b8185610db2565b9050610f6a6040830184610e2f565b949350505050565b6000604051905081810181811067ffffffffffffffff82111715610f9557600080fd5b8060405250919050565b600067ffffffffffffffff821115610fb657600080fd5b601f19601f8301169050602081019050919050565b6000819050602082019050919050565b600081519050919050565b600081519050919050565b600081519050919050565b6000602082019050919050565b600082825260208201905092915050565b600082825260208201905092915050565b600082825260208201905092915050565b6000819050919050565b82818337600083830152505050565b60005b83811015611073578082015181840152602081019050611058565b83811115611082576000848401525b50505050565b6000601f19601f8301169050919050565b6110a28161103c565b81146110ad57600080fd5b5056fea365627a7a72315820b18a65718b123a391f97f8990ca76eb15dcafe7fa61cccb6b1c1f5eaab045e736c6578706572696d656e74616cf564736f6c63430005100040",
  "source": "// SPDX-License-Identifier: MIT\r\npragma solidity >=0.4.21 <0.8.12;\r\npragma experimental ABIEncoderV2;\r\n\r\ncontract SimpleStorage {\r\n  uint storedData;\r\n\r\n  struct Item {\r\n    uint pid;\r\n    string pname;\r\n    uint qty;\r\n  }\r\n\r\n  struct Auth{\r\n    string id;\r\n    string pass;\r\n  }\r\n\r\n\r\n  mapping(uint => Item) public idmap;\r\n\r\n  uint [] public allitems;\r\n\r\n  string [] public allcat;\r\n  Item item;\r\n\r\n\r\n  event itemadded(\r\n    uint pid,\r\n    string pname,\r\n    uint qty\r\n  );\r\n\r\n  mapping(uint => string) public pid_to_cat;\r\n\r\n\r\n  function addcategory(string memory _cat) public {\r\n    require(bytes(_cat).length > 0);\r\n    allcat.push(_cat);\r\n  }\r\n\r\n  function fetchallcat() public view returns(string[] memory ) {\r\n\r\n    return allcat;\r\n\r\n  }\r\n\r\n  function readauth() pure public returns(Auth memory a) {\r\n    Auth memory auth1;\r\n    auth1 = Auth( \"colonelsmart\",\"kernel@123\");\r\n    return auth1;\r\n\r\n  }\r\n\r\n  function set( uint _pid,  string memory _pname, uint _qty, string memory _catg) public  {\r\n    require(_pid > 0);\r\n    require(bytes(_pname).length > 0);\r\n    require(_qty > 0);\r\n\r\n    item = Item(_pid,_pname,_qty);\r\n    allitems.push(_pid);\r\n    idmap[_pid] = item;\r\n    pid_to_cat[_pid] = _catg;\r\n\r\n    emit itemadded(_pid, _pname, _qty);\r\n  }\r\n\r\n  function get(uint proid) public view returns (string memory categoryofpid,string memory pnameofpid) {\r\n    for (uint i=0;i< allitems.length;i++){\r\n      if ( proid == allitems[i]){\r\n        Item memory curritem;\r\n        curritem = idmap[proid];\r\n        string memory mapres;\r\n        mapres = pid_to_cat[proid];\r\n        return (mapres,curritem.pname);\r\n      }\r\n    }\r\n  }\r\n}\r\n",
  "sourcePath": "E:\\build\\LogiBlock\\contracts\\SimpleStorage.sol",
  "compiler": {
    "name": "solc",
    "version": "0.5.16+commit.9c3226ce.Emscripten.clang"
  },
  "schemaVersion": "3.4.3",
  "updatedAt": "2021-11-11T14:58:06.196Z",
  "networkType": "ethereum",
  "devdoc": {
    "methods": {}
  },
  "userdoc": {
    "methods": {}
  }
}